:0B0CDE003F065B4F666D7D077F6F7760
:100C92000210003702120059022200000224000052
:0C0CA200020A0000020E00000208000020
:040CCF007F647E00C0
:0B0CD300EF1FAC0670011E4C70F622F3
:100CAF00438901758CD8758AF0D2A9D2AFD28C2224
:100CBF00438910758DD8758BF0D2ABD2AFD28E22FF
:030C5700120AF589
:100C5A00E4FDED146010146013146016240370167A
:100C6A00C2A0C2A18010D2A0C2A1800AC2A0D2A1F1
:100C7A008004D2A0D2A1741C2DF8E6F580120CCF04
:070C8A00E4F5800DBD04CB71
:010C91002240
:100AF500AE10AF117C007D0A120BBE74DE2DF5829F
:100B0500740C3CF583E493F51CAE10AF117C007DAD
:100B15000A120BBE74DE2FF582740C3EF583E49346
:100B2500F51DAE12AF137C007D0A120BBE74DE2DCF
:100B3500F582740C3CF583E493F51EAE12AF137C7D
:100B4500007D0A120BBE74DE2FF582740C3EF58310
:050B5500E493F51F22EE
:030A890012080050
:100A8C00E4FDEDB40800504D900A9BF82828730241
:100A9C000AB3020AB7020ABF020AC3020ACB020A4D
:100AAC00CF020AD7020ADBC2A28002D2A2C2A3C220
:100ABC00A48022C2A28002D2A2D2A3C2A48016C257
:100ACC00A28002D2A2C2A3D2A4800AC2A28002D265
:100ADC00A2D2A3D2A474142DF8E6F590120CCFE494
:080AEC00F5900DED6408709A0D
:010AF40022DF
:10080000AE22AF237C007D0A120BBE74DE2DF58272
:10081000740C3CF583E493F514AE22AF237C007D89
:100820000A120BBE74DE2FF582740C3EF583E4933E
:10083000F515AE24AF257C007D0A120BBE74DE2DAB
:10084000F582740C3CF583E493F516AE24AF257C59
:10085000007D0A120BBE74DE2FF582740C3EF58308
:10086000E493F517AE0AAF0B7C007D0A120BBE7441
:10087000DE2DF582740C3CF583E493F518AE0AAFD7
:100880000B7C007D0A120BBE74DE2FF582740C3EC9
:10089000F583E493F519AE0EAF0F7C007D0A120BC1
:1008A000BE74DE2DF582740C3CF583E493F51AAE2C
:1008B0000EAF0F7C007D0A120BBE74DE2FF5827422
:0908C0000C3EF583E493F51B22C4
:100A0B00120CAF75B0FF120C571208C9120A89D31A
:100A1B00E5139459E512940040ECC2A9C28CC2AF05
:100A2B00E4F50CF50DF510F511F512F513120CBFDD
:100A3B00120C571208C9120A89E509450860F1C260
:100A4B00AF7520077521D0B2A5120CCFE52115216A
:100A5B0070021520D3E5219400E520940050E8E5C1
:100A6B000F245AF513E4350EF512850A10850B1178
:0E0A7B00120AF5120C5A120800120A8C80F2B0
:03000B00020C13D1
:100C1300C0E0C0D0758CD8758AF0050DE50D700263
:100C2300050CC39464E50C94004024750C00750D09
:100C3300000511E51170020510943CE51094004085
:100C43000E7510007511000513E51370020512D01F
:040C5300D0D0E032EB
:03001B00020B5A7B
:100B5A00C0E0C0D0758DD8758BF0050DE50D70021B
:100B6A00050CC39464E50C94004024750C00750DC3
:100B7A00000511E51170020510943CE5109400403F
:100B8A000E7510007511000513E51370020512E5C4
:100B9A0011B50B1BE510B50A16E513B50F11E512D1
:100BAA00B50E0C750800750901C28EC2AFC2ABD072
:040BBA00D0D0E03285
:1008C90020B0080523E5237002052220B10805257B
:1008D900E5257002052420B213C3E5239401E5221E
:1008E90094004008E52315237002152220B313C391
:1008F900E5259401E52494004008E52515257002B5
:10090900152420B508050FE50F7002050E20B60B5A
:10091900741E250BF50BE4350AF50A20B40EAF2336
:10092900AE228524228525238E248F25D3E50B9499
:100939003BE50A94004024AE0AAF0B7C007D3C12D3
:100949000BBEEF250FF50FEE350EF50EAE0AAF0B08
:100959007C007D3C120BBE8C0A8D0B30B01230B17D
:100969000F30B20C30B30930B40630B50320B605E8
:0509790012080080E6F9
:01097E002256
:0300000002097F73
:0C097F00787FE4F6D8FD7581250209C6DA
:100BBE00BC000BBE0029EF8DF084FFADF022E4CC1B
:100BCE00F875F008EF2FFFEE33FEEC33FCEE9DECE4
:100BDE00984005FCEE9DFE0FD5F0E9E4CEFD22ED2A
:100BEE00F8F5F0EE8420D21CFEADF075F008EF2F74
:100BFE00FFED33FD4007985006D5F0F222C398FD65
:050C0E000FD5F0EA2201
:10098B00020A0BE493A3F8E493A34003F68001F26D
:10099B0008DFF48029E493A3F85407240CC8C3336D
:1009AB00C4540F4420C8834004F456800146F6DF3C
:1009BB00E4800B0102040810204080900C92E47E2E
:1009CB00019360BCA3FF543F30E509541FFEE49331
:1009DB00A360010ECF54C025E060A840B8E493A3F8
:1009EB00FAE493A3F8E493A3C8C582C8CAC583CA23
:1009FB00F0A3C8C582C8CAC583CADFE9DEE780BEDB
:010CAE000045
:00000001FF
